:020000040800F2
:10000000801F0020A1010008F7210008491D0008F9
:10001000F5210008A9090008BD2B00080000000018
:1000200000000000000000000000000009010008BE
:10003000AB090008000000004D010008E528000899
:10004000BB010008BB010008BB010008BB010008A0
:10005000BB010008BB010008BB010008BB01000890
:10006000BB010008BB010008BB010008BB01000880
:10007000BB010008BB010008BB010008BB01000870
:10008000BB010008BB010008BB010008BB01000860
:10009000BB010008BB010008BB010008BB01000850
:1000A00000000000BB010008BB010008BB01000804
:1000B000BB010008BB010008BB010008BB01000830
:1000C000BB010008BB010008BB010008BB01000820
:1000D000BB010008B12B0008BB010008BB010008F0
:1000E000BB010008BB010008BB010008BB01000800
:1000F000BB010008DFF80CD000F044FC00480047CA
:10010000ED340008801F0020224B19680868B0E811
:10011000F00F80F30988BFF36F8F4FF0000080F37A
:1001200011884EF00D0E7047000000000648006870
:10013000006880F3088862B661B6BFF34F8FBFF3E3
:100140006F8F00DF00BF00BF08ED00E0EFF3098014
:10015000BFF36F8F0F4B1A6820E9F00F106008B5DE
:100160004FF0500080F31188BFF34F8FBFF36F8FB4
:1001700004F01CF94FF0000080F31188BDE808403E
:1001800019680868B0E8F00F80F30988BFF36F8F33
:10019000704700BF44000020EFF305807047000067
:1001A0000648804706480047FEE7FEE7FEE7FEE711
:1001B000FEE7FEE7FEE7FEE7FEE7FEE75D29000853
:1001C000F50000082DE9F05F0546002092469B46A9
:1001D00088460646814640241BE02846414647465D
:1001E000224600F07AFA53465A46C01A914110D37B
:1001F00011461846224600F061FA2D1A67EB0108F5
:100200004F4622460120002100F058FA17EB000962
:100210004E41201EA4F10104DFDC484631462A4647
:100220004346BDE8F09F40EA01039B0703D009E085
:1002300008C9121F08C0042AFAD203E011F8013BD2
:1002400000F8013B521EF9D27047D2B201E000F82B
:10025000012B491EFBD270470022F6E710B513466A
:100260000A4604461946FFF7F0FF204610BDF0B4D9
:1002700080EA0102D40F4200B2EB410F02D20246E3
:10028000084611464A0042D0C30DDDB2C1F3C75241
:10029000AD1A202D35DAC1F3160141F4000204B184
:1002A0005242C5F1200602FA06F12A411044B3EB8E
:1002B000D05F23D0C4B1012DA0EBC35009DCF0BC4A
:1002C0004FF0004202EAC352DBB200F5000000F03A
:1002D0002FBA400000F1807000EBC350A0F1807095
:1002E00040EAD170490009E0490841EAC071A0EB39
:1002F000C35000F50000400800EBC350F0BC00F014
:100300000EBA6142012202EB4101001BF6E7F0BC8C
:10031000704781F00041AAE780F00040A7E730B4C1
:1003200080EA010202F0004530F0004221F0004076
:1003300013D090B1C30DD40DC2F31601C0F3160053
:10034000E41A41F4000140F400027D34914201D3EB
:10035000641C00E04900002C02DA30BC0020704729
:100360004FF400000023914201D3891A034340084F
:100370004FEA4101F7D151B1914202D14FF0004112
:1003800005E002D24FF0010101E06FF0010103EB43
:10039000C450284430BC00F0C2B9420005D0C0F3BC
:1003A000C7525242914201DC0020704700EBC1501D
:1003B00070472DE9FE4F804681EA0300C00F0C46CE
:1003C000009021F0004123F00045B8EB0200A94164
:1003D00005D24046214690461C460B46024623F075
:1003E0000040104347D0270DC7F30A00C3F30A515A
:1003F0000290401A019040286BDAC3F3130040F4D6
:10040000801B0098924620B10023D2EB030A63EBD5
:100410000B0B01985946C0F14002504600F04EF9CE
:1004200006460D4650465946019A00F066F910EB13
:1004300008006141002487EA115284EAE7731A43F5
:1004400040D0009A62B3019A012A4FEA075215DCA4
:10045000001B61EB02014FF0004202EA0752CDE9B6
:100460000042001C41F5801132462B4600F09DF9F8
:1004700003B0BDE8F08F40462146F9E7001B61EB71
:100480000201001C41F5801300185B412018A2F501
:10049000001747EB030140EAD570B6196D4111E032
:1004A0006D084FEA360645EAC0754FEA0752001B51
:1004B00061EB0201001C41F5801149084FEA300050
:1004C0000019514132462B4603B0BDE8F04F00F011
:1004D0005DB90098012240000023D0EB020263EBDB
:1004E000E073009821464FEAE074B8EB000061EB3E
:1004F0000401E9E783F000435BE781F0004158E73E
:100500002DE9FE4F81EA030404F0004421F000418C
:1005100000944FF0000B23F0004350EA01045ED03A
:1005200052EA03045BD0C3F30A54C1F30A552C44C6
:10053000A4F2F3340194A0FB0254C1F3130141F47B
:100540008011C3F3130343F4801301FB024400FB47
:10055000034E840A970A44EA815447EA8357A4FB6E
:10056000076802958D0A05FB07854FEA932C04FB6B
:100570000C542705029D4FEA065847EA1637B5EB9B
:1005800008056EEB070C870E920E47EA811742EAC8
:100590008312A7FB0201B6EB0B0164EB00042B0DE9
:1005A00043EA0C335E1844EB1C50DA465146E7FB35
:1005B0000201C5F313044FEA0B3343EA14534FEA25
:1005C0000432019C43EA0603A4F10C040294009C4B
:1005D000CDE900B400F0E9F803B0BDE8F08F0020E9
:1005E0000146F9E7C10F80EAE0700844CA07962384
:1005F000002100F09DB896230022114600F098B823
:1006000000F0004220F00040C10DC0F3160040F49D
:1006100000007F2901DA00207047962903DCC1F130
:100620009601C84001E096398840002AF4D0404243
:10063000704700F0004230F000400AD0C10D01F5D3
:100640006071C0F3160042EA0151C208400711432D
:10065000704700200146704701F0004330B421F09C
:10066000004150EA010206D00A0DA2F56072C1F302
:100670001301002A02DC30BC00207047440F44EA1A
:10068000C104C100E01830BC00EBC25000F047B814
:1006900030B50B46014600202022012409E021FA52
:1006A00002F59D4205D303FA02F5491B04FA02F54F
:1006B0002844151EA2F10102F1DC30BD202A04DB22
:1006C000203A00FA02F1002070479140C2F1200365
:1006D00020FA03F3194390407047202A04DB203AA4
:1006E00021FA02F00021704721FA02F3D040C2F152
:1006F00020029140084319467047202A06DBCB1799
:10070000203A41FA02F043EAE07306E041FA02F3CC
:10071000D040C2F120029140084319467047002999
:10072000A8BF7047401C490008BF20F00100704777
:1007300010B4B0FA80FC00FA0CF050EA010404BFD7
:1007400010BC704749B1CCF1200421FA04F411FA2D
:100750000CF118BF012121430843A3EB0C01CB1D71
:100760004FEA00614FEA102042BF002010BC7047E2
:1007700000EBC35010440029A4BF10BC7047401CBC
:10078000490008BF20F0010010BC704710B5141ECE
:1007900073F1000408DA401C41F1000192185B413A
:1007A0001A4301D120F0010010BD2DE9F04D924611
:1007B0009B4611B1B1FA81F202E0B0FA80F2203228
:1007C0009046FFF77BFF04460F4640EA0A0041EAE5
:1007D0000B0153465A46084313D0114653EA010011
:1007E00019D0C8F140025046FFF777FF05460E4684
:1007F000504659464246FFF761FF084305D00120A5
:1008000004E020463946BDE8F08D0020054346EA65
:10081000E0762C4337430A986305E40AA0EB08000E
:100820000022FD0A44EA47540A3002D5002001465E
:10083000E9E7010510196941DDE908450019694139
:10084000BDE8F04DA2E72DE9F04D81EA030404F084
:10085000004B21F0004514464FF0000A23F0004100
:1008600050EA050220D054EA01021DD0C5F30A5710
:100870000246C5F31303C1F31300C1F30A5640F453
:10088000801543F48013A7EB0608101BD64608F228
:10089000FD3873EB050002D308F1010801E092185E
:1008A0005B41B8F1000F03DA00200146BDE8F08D8E
:1008B00000204FF48011064684460EE0171B73EBB0
:1008C000050705D3121B63EB050306434CEA010C35
:1008D00049084FEA300092185B4150EA0107EDD118
:1008E00052EA030012D082EA040083EA05010843B9
:1008F00005D0101BAB4106D20122002306E00022E6
:100900004FF0004302E06FF0010253101AEB0600B3
:100910004CEB085110EB0A0041EB0B01BDE8F04D28
:10092000FFF734BFC1F30A52C1F3130140F2FF33A2
:1009300041F480119A4202DA00200146704740F2E9
:1009400033439A42A2F2334202DC5242FFF7C5BE61
:10095000FFF7B4BE30B5041E71F1000404DB4FF0A4
:100960000044404264EB0101141E73F1000405DBF6
:100970001C464FF00043524263EB0403994208BF08
:10098000904230BD064C074D06E0E06840F00103A0
:1009900094E8070098471034AC42F6D3FFF7AEFB5B
:1009A0007C5900089C590008FEE7704710B590F884
:1009B00021100024022903D00421816301241AE0BC
:1009C00001680A6822F00E020A6001680A6822F0D3
:1009D00001020A6090F84010C36B01F01C02012173
:1009E00001FA02F25A6080F82110002180F82010EC
:1009F000416B01B18847204610BD000070B5044628
:100A000000F0F2F80546601C02D004484068044437
:100A100000F0EAF8401BA042FAD370BD3400002079
:100A20002DE9FC4FDFF894A1002301250AF1040B06
:100A300003244FF00F0C0BF1040EB8E005FA03F697
:100A4000324071D04F68012F05D0022F03D0112FF3
:100A500001D0122F17D1D0F808905F0004FA07F8E0
:100A600029EA08090097D1F80C8008FA07F848EA43
:100A70000908C0F808804768B7430E79C6F3001626
:100A80009E403E434660C6684FEA430804FA08F7B2
:100A9000BE4301978F6807FA08F73743C7604E686F
:100AA000022E01D0122E13D1DE0800EB860600962E
:100AB000366A5F07FF0E0CFA07F926EA0906D1F835
:100AC000109009FA07F949EA0609009EC6F8209035
:100AD0000768019EB7430E7906F0030606FA08F68A
:100AE0003E4306604E68F60060D5354E376847F0E5
:100AF00001073760366823F0030706F00106009609
:100B0000304E3E44B146B6689F074FEA17780CFA5C
:100B100008F7BE432C4FB84201D1002715E02B4FF8
:100B2000B84202D1012710E040E0294FB84201D17C
:100B300002270AE0274FB84201D1032705E0264FDC
:100B4000B84201D1042700E0052707FA08F7374328
:100B5000C9F80870DAF800705646D1F80480974357
:100B60005FEAC83800D517433760DBF800605F469E
:100B7000D1F8048096435FEA883800D516433E607A
:100B8000DEF800607746D1F8048096435FEAC82813
:100B900000D516433E60094F0C373E68D1F80480FB
:100BA00096435FEA882800D516433E605B1C0A68BE
:100BB00032FA03F67FF442AFBDE8FC8F0004014037
:100BC00020380240000001400000024000040240C2
:100BD00000080240000C0240001002400AB181618E
:100BE00070470904FBE70000014880687047000077
:100BF0003400002070B5040025D094F83D00002595
:100C000020B984F83C50204600F04CFA242084F8A7
:100C10003D002068016821F0010101602068016841
:100C200041F4004101602068016821F40041016045
:100C300000F0D6FB4D4A6168914201D84C4900E072
:100C40004C49884201D2012070BD4B492368B0FB5A
:100C5000F1F15E6826F03F060E435E6063689342E2
:100C600006D94FF4967359434FF47A73B1FBF3F1FD
:100C70002368491C1E6A26F03F06314319626168E9
:100C8000914210D84900401EB0FBF1F2521CC2F351
:100C90000B02042A01D2042022E0B0FBF1F0401C38
:100CA000C0F30B001CE0A268F2B301EBC10303EB3D
:100CB0000116431EB3FBF6F35B1C43F480431B0594
:100CC00049D092B301EBC10202EB0111401EB0FB0F
:100CD000F1F0401CC0F30B0040F4804040F40040B1
:100CE0002168CA694CF6FF739A431043C861D4E97E
:100CF000071001432068026822F0C002114301601E
:100D0000D4E9030101432068826848F2FF339A4323
:100D100011438160D4E9050108432168CA6822F0C3
:100D2000FF021043C86001E00EE016E02068016891
:100D300041F0010101602564202084F83D00256315
:100D400084F83E50002070BD01EB4106431EB3FB0A
:100D5000F6F35B1CB3E70120C2E701EB4101401E43
:100D6000B0FBF1F0401CC0F30B00B7E7A086010018
:100D700080841E0000093D0040420F002DE9FF4F16
:100D800083B09A46DDE9119793460446DDF840802A
:100D9000FFF72AFF054694F83D00202870D119235B
:100DA000012271492046009501F0DEF80028F5D1B6
:100DB00094F83C00012863D0012084F83C002068AE
:100DC0000168C90703D1016841F001010160206891
:100DD000016821F400610160222084F83D00402078
:100DE00084F83E0000262664C4F82480A4F82A90E3
:100DF000608D20855D48E062CDE9007553465A4616
:100E00002046049900F0B8FF00287CD1208DD0B195
:100E1000012821D00228206824D0416980690090EF
:100E2000208D032869D801282BD0514902283B4640
:100E30004FF00002009559D08846204601F094F802
:100E4000002860D13CE02068416981690091016817
:100E500041F40071016077E02068016821F480614D
:100E60000160F0E7016821F4806101602068016899
:100E700041F400610160206841698069009063E08D
:100E80006FE02A463946204601F0EDF898BB20680D
:100E90000069616A08704EE02068016841F40071E1
:100EA000016020680069616A0870606A401C6062C5
:100EB000218D491E2185618D491E6185216838E09B
:100EC0002068016821F48061016020680069616A1E
:100ED0000870606A401C6062208D401E2085608D15
:100EE000401E60853B46002241460095204601F0A9
:100EF0003BF800B9D0E706E0FFE72A46394620462E
:100F000001F0B1F818B1012007B0BDE8F08F2068FA
:100F10000069616A0870606A401C6062218D491E28
:100F20002185618D491E618521684A69D243520736
:100F30000AD409690170606A401C6062208D401EFD
:100F40002085608D401E6085208D00287FF468AF6D
:100F5000202084F83D0084F83E6084F83C60002046
:100F6000D2E70220D0E70000020010000000FFFFDF
:100F7000040001002DE9FF4F83B09A46DDE9119787
:100F800093460446DDF84080FFF72EFE054694F8B0
:100F90003D0020287FD11923012240492046009599
:100FA00000F0E2FF002876D194F83C00012872D0CE
:100FB000012084F83C0020680168C90703D101685A
:100FC00041F0010101602068016821F400610160C5
:100FD000212084F83D00402084F83E00002626644D
:100FE000C4F82480A4F82A90608D20852C48E06203
:100FF000CDE9007553465A462046049900F03AFF61
:1010000070B930E02A463946204601F05FF858B101
:10101000206C042804D12068016841F4007101604B
:10102000012007B0BDE8F08F606A21680078086190
:10103000606A401C6062218D491E89B22185628DE3
:10104000521E628522685369DB435B070BD469B18A
:1010500000781061606A401C6062208D401E20850F
:10106000608D401E6085208D0028CBD12A463946F0
:10107000204600F053FF0028CAD154F83D0B016808
:1010800041F400710160202004F81E09E6776677BC
:101090000020C6E7FFE70220C3E7000002001000BF
:1010A0000000FFFF10B586B0044614216846FFF724
:1010B000D3F813492068884220D11248016841F0D2
:1010C000020101600068694600F002000590C0203E
:1010D0000090122001900120029003200390042030
:1010E00004900948FFF79CFC06480830016841F469
:1010F00000110160006800F40010059006B010BDFA
:10110000005400401C38024000040240024881683C
:1011100042681144816070473400002010B50024FB
:10112000032000F079F8002000F008F808B101244D
:1011300001E000F025F8204610BD000070B50E4E0D
:1011400005460024706898B14FF47A71B1FBF0F055
:101150000A490968B1FBF0F000F0E5FC40B9102D38
:1011600006D200222946501E00F036F8356000E015
:101170000124204670BD0000340000204000002003
:101180000D4808B5016841F000410160016801F0B7
:1011900000410091011F0A6842F001020A600968DB
:1011A00001F001010091016841F080510160006887
:1011B00000F08050009008BD24380240002809DB70
:1011C00000F01F02012191404009800000F1E02061
:1011D000C0F8001170470000F0B40E4B1B680C46BD
:1011E000C3F30223C3F10705042D00D90425191DFB
:1011F000072901D2002300E0DB1E012606FA05F1D3
:10120000491E214099409E40761E16403143F0BC55
:1012100001F0E6BC0CED00E0064900F007020868AA
:101220004FF6FF03184040EA0220034A10430860CB
:10123000704700000CED00E00000FA052DE9F047D2
:101240000E46050079D0DFF88481D8F8000000F060
:101250000100B04214D2012E05D1D8F8001041F09F
:101260000401C8F80010D8F8001021F00101314342
:10127000C8F80010D8F8000000F00100B0425CD1BE
:101280002878534C800705D52068A96820F0F00025
:10129000084320602878C0075CD04D496868083949
:1012A00002281AD003281BD0096801281BD0890501
:1012B000002966DA216821F0030101432160FFF76C
:1012C00093FC6968074641F28830022914D003294B
:1012D00020D0012981462AD038E009688903E7E750
:1012E00009688901E4E78907E2E700BFFFF77CFCB2
:1012F000C11B494501D926E081462068C0F3810021
:101300000228F3D126E000BFFFF76EFCC11B494560
:1013100001D918E081462068C0F381000328F3D189
:1013200018E000BFFFF760FCC11B49450BD82068DF
:10133000C0F381000128F5D10CE022E0FFF754FC56
:10134000C11B494502D90320BDE8F087206810F091
:101350000C0FF3D1D8F80010404601F00101B14262
:1013600011D9012E03D1016841F004010160016827
:1013700021F0010131430160006800F00100B0423A
:1013800001D00120E0E72878400705D52068E9680A
:1013900020F4E060084320602878000706D5206824
:1013A000296920F4605040EAC100206000F038F85C
:1013B0002168084AC1F30311515CC840064908601E
:1013C00006480068BDE8F047FFF7B8BE003C0240A1
:1013D0000838024031590008400000203400002045
:1013E0000448054900680968044AC1F30221515CB8
:1013F000C8407047400000200838024041590008AA
:101400000448054900680968044AC1F3C221515CD7
:10141000C840704740000020083802404159000889
:1014200070B5154D2968154801F00C02042A0CD03E
:10143000134C082A0AD00C2A0AD0281F0068C0F3CF
:1014400042314FF40040491C884070BD204670BDB9
:101450000C4AC1F38343D35CC1F381522968521C07
:10146000C90302D5A3FB040101E0A3FB0001002393
:10147000FEF7A8FE70BD0000083802400024F4000A
:1014800000366E01285900082DE9F84F04007DD080
:10149000FC480168006801F00C0700F480362078F1
:1014A000F94DC00741D0082F12D00C2F02D1B6F54C
:1014B000803F0DD06068012811D008B1052818D0F0
:1014C000286820F480302860286820F4802009E013
:1014D0002868800329D560680028D8D025E02868CE
:1014E00040F480302860606890B1FFF77DFB804653
:1014F0000AE0286840F480202860F0E7FFF774FBDA
:10150000A0EB080064287BD828688003F6D50CE09F
:10151000FFF76AFB804605E0FFF766FBA0EB0800DB
:101520006428F0D828688003F6D42078DFF85CB30C
:10153000DFF85C8380074FF001094FF0000A35D5D2
:10154000042F0AD00C2F00D13EB1E068F8B1C8F8E2
:101550000090FFF749FB06460BE0286880070BD593
:10156000E068012812D107E0FFF73EFB801B02284C
:10157000C9D828688007F7D5DBF80010226921F464
:10158000F85141EA0221CBF800100FE077E1C8F8EA
:1015900000A0FFF729FB064605E000BFFFF724FB8C
:1015A000801B0228AFD828688007F7D42078C006AF
:1015B00074D53FB1A069E0B3C8F82090FFF714FBE1
:1015C00006464AE02868800502D5A069002884D034
:1015D000206ADBF800105E4601F46041884210D9B1
:1015E00000F074FF0028BDD13068216A20F460400B
:1015F00008433060217F306861F31F6030600FE086
:1016000096E0316821F4604101433160217F306808
:1016100061F31F603060206A00F058FF0028A1D1FC
:10162000216A4FF4004009EB51318840954909681F
:1016300000E025E0974AC1F30311515CC840964988
:10164000086096480068FFF779FD00286FD125E013
:10165000FFF7CAFA801B02286AD828688005F7D5E8
:10166000DBF80010226A21F460411143CBF800102E
:10167000227FDBF8001062F31F61CBF800100DE051
:10168000C8F820A0FFF7B0FA064604E0FFF7ACFA6E
:10169000801B02284CD828688005F7D42078804E1B
:1016A000000722D57F48616981B1C0F80090FFF73B
:1016B0009BFA834606E000BFFFF796FAA0EB0B000B
:1016C000022835D830688007F6D50EE0C0F800A0B3
:1016D000FFF78AFA834605E0FFF786FAA0EB0B00D6
:1016E000022825D830688007F6D4207840076DD5C9
:1016F0006B484FF0000B10380068C0000BD46848EE
:101700001038016841F08051016000684FF0010B12
:1017100000F08050009064480168C90514D4016845
:1017200041F480710160FFF75FFA009008E08DE0FE
:1017300079E000BFFFF758FA0099401A642872D880
:1017400059480068C005F5D5A06801280AD008B13D
:10175000052811D0306820F480703060306820F4A3
:10176000806002E0306840F480703060A068A8B10A
:10177000FFF73AFA00900DE0306840F48060306086
:10178000F0E700BFFFF730FA0099411A41F28830C4
:1017900081425AD830688005F4D50EE0FFF724FA6C
:1017A000009007E0FFF720FA0099411A41F28830D3
:1017B00081424AD830688005F4D4BBF1000F05D0CF
:1017C00037481038016821F080510160606A58B3D1
:1017D0000C2F41D00228504605D0C8F86000FFF712
:1017E00003FA044634E04746C8F86000FFF7FCF906
:1017F000064604E0FFF7F8F9801B022825D8286880
:101800008001F7D4D4E90A1001431E48226B036813
:1018100023F47D031A4311430160C7F86090FFF77A
:10182000E3F9044607E010E040E000BFFFF7DCF911
:10183000001B022809D828688001F7D536E000BFD0
:10184000FFF7D2F9001B022802D90320BDE8F88F68
:1018500028688001F4D429E00128F7D009480068FD
:10186000A26A00F48031914209D1E26A00F4701159
:10187000914204D1216B00F44000884216D001202F
:10188000E4E7000008380240003802400438024013
:101890000000474231590008400000203400002079
:1018A0003438024080064742007000400020CDE7F7
:1018B00070B5040009D0606A002540B125616561FA
:1018C000A56294F8510040B10CE0012070BD606841
:1018D000B0F5827FF4D0E561F2E784F850502046FD
:1018E00000F03AF8022084F851002068016821F0E5
:1018F00040010160A088218900F4827001F4044154
:101900000843A18901F400610843217C01F0020130
:101910000843217D01F001010843218B01F400718E
:101920000843217F01F03801084394F8201001F0AA
:1019300080010843218D01F40051084321680860AB
:10194000A069042101EA1040216848606565012012
:1019500084F85100002070BD10B586B004461421F3
:101960006846FEF779FC13492068884220D1124866
:10197000016841F480510160006800F480500590D6
:101980000D48001F016841F00101016000686946CF
:1019900000F001000590E02000900220019000205E
:1019A000029003200390052004900448FFF738F8C4
:1019B00006B010BD00300140203802400000024057
:1019C0002DE9F84F044690F8500000271D461646B2
:1019D000894601280DD04FF0010B84F850B0FFF775
:1019E00003F9804694F85100BA46012804D0022732
:1019F00093E00220BDE8F88FB9F1000F73D0002EFC
:101A000071D0032084F85100C4F854A0C4F8309079
:101A1000A686E686C4F838A0A4F83CA0A4F83EA0A8
:101A2000C4F844A0C4F840A0A068B0F5004F09D1A4
:101A30002068016821F0400101602068016841F4DC
:101A40008041016020680168490603D4016841F0C3
:101A500040010160E068B0F5006F606803D030B30A
:101A6000012E24D041E008B1012E1CD1206B216849
:101A70000088C86006E020688168890709D5216B65
:101A80000988C160206B801C2063E08E401EE086C8
:101A900009E0FFF7A9F8A0EB0800A84202D3681CF0
:101AA00001D031E07DB3E08E0028E4D120E0206B4E
:101AB00021680078087306E020688168890709D5E5
:101AC000216B09780173206B401C2063E08E401E5F
:101AD000E0860AE0FFF788F8A0EB0800A84203D3ED
:101AE000681C02D010E017E06DB1E08E0028E3D151
:101AF00042462946204600F029FD08B120206065B5
:101B0000A06818B106E0FFE7032706E02068C16877
:101B100080680090606D00B1012784F851B084F8AE
:101B200050A0384666E710B5401EB0F1807F01D363
:101B3000012010BD4FF0E02460610F21601701F01B
:101B40004FF80020A06107202061002010BD7047E1
:101B500070B5026804461068D168536910F00F0F21
:101B600052D003F0010501F490762E435FD0C207F6
:101B700005D0CA0503D5E26B42F00102E2634207D9
:101B800005D5DA0703D0E26B42F00202E263820776
:101B900005D5DA0703D0E26B42F00402E2630207E4
:101BA00007D501F020022A4303D0E26B42F008027D
:101BB000E263E26B002A33D0800604D5880602D5A2
:101BC000204600F0E9FE20684069E16BC0F3801018
:101BD000090700D428B3204600F0D0FE20684169F0
:101BE00049061AD5416921F040014161606BA0B1FD
:101BF0001B494163606BFEF7D9FE002810D0606B73
:101C0000416BBDE870400847830610D58B060ED5A2
:101C10002046BDE8704000F0BFBE2046FFF797FFAA
:101C200070BD2046FFF793FF0020E06370BD030600
:101C300006D50B0604D52046BDE8704000F086BFEF
:101C40004006F3D54806F1D5D168204621F0400181
:101C5000D160202184F8391000F075F870BD0000C3
:101C60006D29000870B5040004D094F839000025EF
:101C700010B106E0012070BD84F83850204600F015
:101C800023F8242084F839002068C16821F4005129
:101C9000C160204600F0CCFE2068016921F490412B
:101CA00001612068416921F02A0141612068C16811
:101CB00041F40051C160E563202084F8390084F8C4
:101CC0003A00002070BD000010B586B00446142113
:101CD0006846FEF7C1FA18492068884229D117489A
:101CE000016841F480410160006800F48040059083
:101CF0001248001F016841F0010101600068694657
:101D000000F0010005904FF4C060009002200190A7
:101D10000020029003200390072004900848FEF75B
:101D20007FFE002211462520FFF756FA2520FFF7F7
:101D300045FA06B010BD00000038014020380240CE
:101D40000000024070477047FEE701684A69D243CD
:101D500052050FD46FF480624A61002140F8301FB1
:101D6000202242738173026942F00402026101730E
:101D700001207047002070472DE9F84F04460068A5
:101D800089460B9D01689846174641F480610160C1
:101D90002068016841F48071016000954FF0011BDB
:101DA0000022594620460A9B00F0DEF84FF4007AE4
:101DB00040B120680068C00501D5C4F840A00320E8
:101DC000BDE8F88F216809F0FE0008612B4628491C
:101DD00020460A9A00F0FCF8F0BB2068416980694F
:101DE00000902A4620460A9900F070F940B1206C14
:101DF00004283AD12068016841F40071016034E0A0
:101E0000FEB2B8F1010F09D02168380A08612A46EC
:101E100020460A9900F05AF90028E8D120680661A6
:101E20002A4620460A9900F051F90028DFD120689F
:101E3000016841F4807101600095002259462046F6
:101E40000A9B00F091F80028B3D1216809F0FF0047
:101E500040F00100086100E007E02B4604492046FD
:101E60000A9A00F0B5F80028AAD00120A8E70000DF
:101E7000020001002DE9F843044600680D46DDE943
:101E8000089701689846164641F4807101604B46F8
:101E900000224FF001112046009700F065F848B18C
:101EA00020680068C00502D54FF40070206403204C
:101EB000BDE8F883216805F0FE0008613B464A460C
:101EC0001549204600F084F888B920684169806986
:101ED00000903A464946204600F0F8F848B1206C98
:101EE000042804D12068016841F4007101600120D8
:101EF000DEE7F5B2B8F1010F09D02168300A0861B8
:101F00003A464946204600F0E1F80028E7D120682B
:101F100005610020CCE700000200010070B5164604
:101F20000D4604460DE02046FFF70FFF08B10120E3
:101F300070BD681C05D0FEF757FE801BA84207D86D
:101F400035B120684069C0434007ECD4002070BD23
:101F5000002044F8300F20216173A073216941F003
:101F6000200121612073E2E72DE9F0471E469046EB
:101F70000D460446C1F30747DDF8209008E0701CC9
:101F800006D0FEF731FEA0EB0900B0420FD876B1C3
:101F90002068012F18D0806925EA00000004000C99
:101FA00014D000214145EAD00020BDE8F087002090
:101FB00044F8300F20216173A073216941F02001A2
:101FC000216120730120F0E74069E5E70121E9E79D
:101FD0002DE9F0479A4691460E46044600254FF0FB
:101FE0002008C1F3074725E020684069C043400549
:101FF00014D42068016841F40071016021686FF415
:1020000080604861256384F83D8084F83E50206CF0
:1020100040F00400206484F83C501FE0B9F1FF3F19
:1020200008D0FEF7E1FDA0EB0A0149450CD8B9F153
:10203000000F09D02068012F13D0806926EA000024
:102040000004000C0BD0CFE744F8305F84F80D801B
:10205000A573206940F02000206125730120BDE8B0
:10206000F0874069EAE72DE9F041002590460E46E9
:102070000446202717E04069C043C0060CD454F83A
:10208000301B6FF01000486144F810596777A5774E
:10209000206A2062257717E0FEF7A6FDA0EB080076
:1020A000B04208D83EB120684169C9434906E2D42C
:1020B0000020BDE8F08144F8305F6773A5732069A4
:1020C00040F02000206125730120F2E770B516462C
:1020D0000D4604460DE02046FFF737FE08B101200B
:1020E00070BD681C05D0FEF77FFD801BA84207D895
:1020F00035B120684069C0430006ECD4002070BDB3
:10210000002044F8300F20216173A073216941F051
:10211000200121612073E2E7F0B587B01421684601
:10212000FEF79AF82348016841F004010160016854
:1021300001F004010591016841F0010101600168AD
:1021400001F001010591016841F0020101600068A0
:10215000012200F00200184F540305902146384632
:10216000FEF73CFD00940225012400260395CDE9ED
:10217000014669463846FEF753FC104F01221146CE
:102180003846FEF72BFD03950094CDE901466946DC
:102190003846FEF745FC012202213846FEF71EFDB7
:1021A000CDE90054CDE9026569463846FEF738FCB2
:1021B00007B0F0BD1C380240000802400000024099
:1021C0000B480A494FF4007201604FF4827141607C
:1021D00000218160C1600161C0E90512C161016235
:1021E000416281620A21C162FFF762BB0030014097
:1021F00014010020FEE7704770B5002404F1B00020
:10220000C0B200F05DF9002000F05AF9102000F093
:1022100057F90025002000F056F96D1CEDB2802D15
:10222000F8D3641CE4B2082CE8D370BD10B57F2845
:1022300014D83F2912D80722A2EBD10201F00701DE
:10224000C1F1070301219940D2B2CCB2114600F08E
:1022500079F82046BDE8104000F035B910BD000007
:1022600010B5374C002202212046FEF7B7FC64204F
:10227000FEF7C4FB012202212046FEF7AFFC00203E
:1022800041F28831401C8842FCD3AE2000F018F99E
:10229000002000F015F9102000F012F9402000F0A5
:1022A0000FF9B02000F00CF9812000F009F9FF20AF
:1022B00000F006F9A12000F003F9C82000F000F9B1
:1022C000A62000F0FDF8A82000F0FAF83F2000F06A
:1022D000F7F8D32000F0F4F8002000F0F1F8D52052
:1022E00000F0EEF8802000F0EBF8D92000F0E8F8DC
:1022F000F12000F0E5F8DA2000F0E2F8122000F01A
:10230000DFF8DB2000F0DCF8402000F0D9F82020D6
:1023100000F0D6F8022000F0D3F88D2000F0D0F8BD
:10232000142000F0CDF8A42000F0CAF8A62000F098
:10233000C7F8AF2000F0C4F8BDE81040FFF75CBF5D
:102340000000024010B50446B031C8B200F0B8F841
:10235000102040EA141000F0B3F804F00F00BDE8BC
:10236000104000F0ADB800002DE9F0470746B0205E
:1023700000EB47001446CD00C0B200F0A1F8C5F351
:10238000031040F01000824600F09AF805F00F00AC
:10239000814600F095F80026DFF8788011E02038BB
:1023A0005F280DD20025A15D08EB01102844A0F59F
:1023B000805090F8000E00F086F86D1C082DF2DBBE
:1023C000761CA05D0028EAD1B12000EB4700C0B226
:1023D00000F076F8504600F073F8484600F070F8C8
:1023E0000026474611E020385F280DD20025A05D69
:1023F00007EB00102844A0F5805090F8080E00F07C
:1024000062F86D1C082DF2DB761CA05D0028EAD175
:10241000BDE8F087384F00082DE9F0410646B020AE
:1024200000EB46001546CC00C0B200F049F8C4F3FA
:10243000031040F01000804600F042F804F00F0056
:10244000074600F03DF81048002400EB0515285D14
:1024500000F039F8641C082CF9DBB12000EB4600D1
:10246000C0B200F02DF8404600F02AF8384600F0DF
:1024700027F800242819007A00F025F8641C082C9D
:10248000F8DBBDE8F0810000984E00082DE9F04728
:102490001E460025814614464FF00A088F190BE0AE
:1024A00094FBF8F108FB1142791B4846491EFFF7DF
:1024B000B3FF94FBF8F46D1CB542F1DBBDE8F08787
:1024C000002101F0A5BF012101F0A2BF38B51C49D0
:1024D000002309681B4A11F0F00F23D118491C3161
:1024E0000C68E500184C03D5216801F4C0540EE0D7
:1024F0000D6845F080550D600D6805F0805500951C
:1025000024680D6804F4C05425F080550D60B4F5BE
:10251000C05F07D1B0F5404F04D11068012340F0EF
:1025200004001060106820F001001843106010686B
:1025300000F00100984201D0012038BD002038BDD4
:1025400008380240003C02400070004038B50446A4
:102550001248134B0068B0FBF3F04FF47A73584302
:1025600000906068B0F5827F0DD10B46009200228A
:102570008021204600F016F870B1606D40F0200018
:102580006065032038BD009830B1401E009020687F
:102590008068C0430006F6D5002038BD400000200A
:1025A00000366E012DE9F8431E46914688460446E2
:1025B000089DFEF719FB401B351AFEF715FB074671
:1025C00025480068C0F3CB30684338E0701C37D032
:1025D000FEF70AFBC01BA84203D215B1009860B3F6
:1025E0002CE02068416821F0E00141606068B0F5AE
:1025F000827F0BD1A068B0F5004F02D0B0F5806F9C
:1026000004D12068016821F040010160A06AB0F5A2
:10261000005F09D12068016821F400510160206841
:10262000016841F400510160012084F8510000204C
:1026300084F850000320BDE8F8830025401E009078
:102640002068816838EA010004D000214945BDD1E5
:102650000020F0E70121F9E7400000201FB500202D
:10266000DFF8949182460646CDF80C00624C4FF498
:102670007A702C3408210094CDE90110012307223F
:10268000AF215E48FEF77AFBE07821798007800B66
:1026900040EA012061790843FDF7ADFF3946FDF7B7
:1026A000E6FD4FF0FF352946FDF777FE0746207817
:1026B00061788007800B40EA0120A1780843FDF78C
:1026C0009AFF4146FDF7D3FD2946FDF766FE804699
:1026D0004B484C468742D9F80C0059DD012803D0FD
:1026E000FFF78AFD0120E0604FF0010B84F800B095
:1026F0000398FDF777FF00905046FDF773FF3946CA
:10270000FDF7B5FD0099FDF704FE2946FDF745FEEE
:10271000FDF776FF824610F10A0F02DAA07840003A
:1027200002E0A1780BEB4100A07041463846FDF76E
:10273000F6FDFDF77EFF8B460546324A324BFDF72C
:10274000DFFECDE9000128465946304A304BFDF7FF
:10275000D7FE2A465B46FDF7D3FEDDE90023FDF7F1
:1027600028FE2C4A2C4BFDF724FEFDF775FFA061D7
:10277000802E09DA06219AFBF1F0C0F11901701CD4
:102780000646FFF753FD17E0FFF736FD002613E07E
:1027900068B1FFF731FD0025E560FFF72DFD00264C
:1027A000FF20A07025612570A5606560A5611BA252
:1027B00002210120FFF7D8FDD9F81800FDF739FFF5
:1027C00005460C463846FDF734FFCDE90001CDE95A
:1027D0000254514614A0D9F8102000F0F1F93846FF
:1027E000FDF70EFF03900121212000F021FF0A20B8
:1027F00001F028FD3AE7000000000020C0000020A2
:1028000000409C45B4C876BE9F5A3E4048E17A14C9
:10281000AE8746C0AE47E17A14B657404E6F2046A9
:10282000494E474552210000613A25642C25642C0D
:1028300025662C25660A0000104C60780028FCD123
:102840000FA200210320FFF78FFD0323022118466A
:102850002269FFF71BFE0BA206210320FFF784FD70
:10286000A069FDF7CDFE024603230B211846FFF7B2
:102870000DFE0A2001F0E6FCDFE70000000000206A
:10288000483A000053706F323A000000124CA078B2
:102890000009FCD1FEF7A8F9A84202DAE943014495
:1028A00000E0411BB1F5967FF1DB4EF6602292FB12
:1028B000F1F105462161D4E9010202FB0012411C3D
:1028C00092FBF1F2A2601E2801D06160DFE70020D8
:1028D00060606261A060DAE700000020012000F083
:1028E000B9FEFBE710B5FEF711FC02F0D7F801289E
:1028F00003D0BDE8104001F007BE10BD10B592B086
:1029000034216846FDF7A8FC14210DA8FDF7A4FCAE
:102910001148016821F4C05141F4006101600121B6
:10292000039102201021009000240491CDE90904B4
:1029300040040B9000010C906846FEF7A5FD0F20A7
:102940000D900320CDE90E04109401210DA81194DF
:10295000FEF774FC12B010BD0070004002494FF049
:10296000006008607047000008ED00E010B5406AA4
:102970000021C185C184FFF7EAF810BD0168CA686B
:1029800022F49072CA6001684A6922F001024A6129
:10299000202180F83A10704710B590F83A1022299B
:1029A00001D0022010BD8168B1F5805F11D00169AE
:1029B000002901681FD0496801F07F03816A4A1C21
:1029C00082620B70C18D491E0904090CC18518D0A3
:1029D0002BE00269816A002A0268526805D0D2B2EF
:1029E0000A80816A491C8162ECE7C2F308020A800E
:1029F000816A891CF7E74A68816A4B1C83620A7006
:102A0000E0E70168CA6822F02002CA600168CA686B
:102A100022F48072CA6001684A6922F001024A61A8
:102A2000202180F83A10FFF78DF9002010BD00003A
:102A30002DE9F041044600680169E26821F4405143
:102A4000114301612169A068E2690843616911438A
:102A500022680843D16849F20C6399430143D1606D
:102A600020684169A26921F44071114341613649EE
:102A70002068884202D1FEF7C3FC01E0FEF7B0FCFB
:102A80000246E36964203221B3F5004F02EBC20332
:102A900003EB021362682BD09200B3FBF2F5B5FB97
:102AA000F0F5B3FBF2F66FF018077D4306EB8505F2
:102AB000B3FBF2F601EB0515B5FBF0F5B6FBF0F64E
:102AC00005F0F00505EB0615B3FBF2F6B3FBF2F2E9
:102AD000B2FBF0F27A4306EB820201EB0211B1FB8A
:102AE000F0F000F00F00216828448860BDE8F08114
:102AF0005200B3FBF2F6B6FBF0F6B3FBF2F7B3FB12
:102B0000F2F56FF0180C06FB0CF607EB860601EBEE
:102B1000C606B5FBF0F5B6FBF0F62D0106F0F8069B
:102B200005EB4605B3FBF2F6B3FBF2F2B2FBF0F2B3
:102B300002FB0CF206EB820201EBC201B1FBF0F0EA
:102B400000F00700CFE700000038014090F839108E
:102B5000212901D0022070478168B1F5805F016AA8
:102B60000BD04A1C0262026809785160C18C491E70
:102B70000904090CC1840ED017E009880268C1F36A
:102B80000801516001690029016A02D0491C0162F3
:102B9000ECE7891CFBE70168CA6822F08002CA6082
:102BA0000068C16841F04001C1600020704700002A
:102BB0000148FEF7CDBF00006C010020FEE70000D9
:102BC0000FB4054B10B503A9044A029800F0EAF8C7
:102BD00010BC5DF814FB0000D5340008BC000020D8
:102BE0000907090E002804DB00F1E02080F800143A
:102BF000704700F00F0000F1E02080F8141D7047CE
:102C000002E008C8121F08C1002AFAD170477047B5
:102C1000002001E001C1121F002AFBD17047000013
:102C20002DE9FF5F82B00021DDE90430020DDDF8FF
:102C300040B0034318D044F61050A2F2FF32424392
:102C40001514119801281FD0A5EB0B00401C5FEA5A
:102C5000000A4FF000064E4FDFF83891B04650465C
:102C600015D5CAF1000413E0119801244AA30128E4
:102C700001D16FEA0B010298119AC0E90031C0E955
:102C8000024206B0BDE8F09FCBF10000DFE704464A
:102C90000021404A491842EB0450CDE9001012E0EF
:102CA000E00707D032463B4640464946FDF728FC40
:102CB0008046894632463B4610461946FDF720FCC1
:102CC00006460F466410002CEAD1DDE90401DDE977
:102CD0000023BAF1000F06DAFDF712FC42464B461C
:102CE000FDF70EFC05E0FDF7AEFD42464B46FDF755
:102CF000AAFD04460E460022284BFDF72BFE03D802
:102D00004FF0FF30014607E00022254B20463146B8
:102D1000FDF74FFBFDF706FE102409E0002C0ADB4F
:102D20000A220023FDF74EFA039B30321A55641E27
:102D300050EA0102F2D1641C039AC4F11103144455
:102D4000119A012A03D0012208430DD10AE0084359
:102D500004D000204FF0110B119072E7A3EB0B058C
:102D60006D1E0DE05B4504DD4FF0000205F101052D
:102D700004E003DA4FF00002A5F10105002AECD0CF
:102D800002981199C0E90231C0E9004579E70000D5
:102D9000000014400000F03F300000000000F0434D
:102DA0000000E03F2DE9FF4F95B09B46894606465F
:102DB00000250FE2252877D100242746F84A012173
:102DC000059400E0044316F8013F203B01FA03F0AC
:102DD0001042F7D130782A2811D06FF02F033078C5
:102DE000A0F13002092A16D8059A44F0020402EB39
:102DF000820203EB42021044761C0590EFE759F87B
:102E0000042B0592002A03DA504244F40054059042
:102E100044F00204761C30782E2816D116F8010FE3
:102E200044F004042A280DD06FF02F023078A0F16E
:102E30003003092B09D807EB870302EB4303C718BC
:102E4000761CF3E759F8047B761C30786C280FD099
:102E500006DC4C2817D068280DD06A2814D104E06D
:102E6000742810D07A280FD10DE044F400140AE041
:102E700044F4801401E044F440147278824202D198
:102E800004F58014761C761C307866280BD013DC91
:102E9000582877D009DC002875D04528F6D0462878
:102EA000F4D047281AD19DE118E0632835D0642872
:102EB00079D0652812D195E1702873D008DC672895
:102EC000F1D069286FD06E280DD06F2806D1B5E0FB
:102ED00073282CD0752875D0782874D05A46179945
:102EE00090476D1C75E1C4F30250022809D00328F5
:102EF0000DD0D9F8001004280DD00D6009F1040997
:102F000067E1D9F80010EA17C1E90052F6E7D9F8ED
:102F100000100D80F2E70D70F0E719F8041B8DF832
:102F2000001000208DF80100EA46012003E059F866
:102F300004AB4FF0FF3061074FF0000102D40DE009
:102F400008F101018846B9420FDA8045F8DB1AF82A
:102F500008100029F4D108E008F1010188468142F7
:102F6000FADB1AF808100029F6D105985B46A0EBA9
:102F7000080721463846179A00F094FA284400EBD7
:102F8000080507E04DE029E10DE01AF8010B5A466B
:102F900017999047B8F10108F7D25B4621463846A9
:102FA000179A13E142E00A220092C4F302524FF052
:102FB000000A022A08D059F804CB032A4FEAEC7120
:102FC0000AD00DE029E02AE009F1070121F007020B
:102FD000F2E802C1914609E00FFA8CFC4FEAEC716D
:102FE000042A03D14FFA8CFC4FEAEC71002907DA6E
:102FF0000A460021DCF1000C61EB02012D2202E007
:10300000220504D52B228DF80420012203E0E207DB
:1030100001D02022F7E7904659E00A2102E0102271
:103020000DE010214FF0000A00910BE010224FF04C
:10303000000A44F004040827009203E008224FF03D
:10304000000A0092C4F30252022A05D059F804CBB8
:103050000021032A08D009E009F1070121F0070245
:10306000F2E802C1914605E01FFA8CFC042A01D166
:103070000CF0FF0C4FF00008220728D5702806D06E
:10308000009B83F0100353EA0A0305D00EE04022B0
:103090008DF80420012208E05CEA010206D030220B
:1030A0008DF804208DF8050002229046009B83F0E5
:1030B000080353EA0A030AD15CEA010201D162075C
:1030C00005D530228DF804204FF001087F1E5828C6
:1030D00004D034A003900EA802900DE036A0F9E7CA
:1030E00053466046009AFDF76DF884460398825C6B
:1030F0000298401E029002705CEA0100F0D1029832
:1031000006A9081A00F1200A600702D524F48034C9
:1031100000E00127574502DDA7EB0A0000E0002090
:1031200000EB0A01009005984144401A0590E00325
:1031300006D45B462146179A059800F0B3F905447A
:10314000002706E001A85A46C05D179990476D1CFC
:103150007F1C4745F6DBE0030CD55B462146179AFA
:10316000059800F09FF9054404E030205A4617996D
:1031700090476D1C0099481E00900029F5DC08E07E
:10318000029802995A460078491C02911799904773
:103190006D1CBAF10001AAF1010AF1DC65E1000041
:1031A000092801003031323334353637383961621D
:1031B00063646566000000003031323334353637E1
:1031C00038394142434445460000000000F058F9B8
:1031D0000544761C307800287FF4ECAD19B0284601
:1031E000BDE8F08F620700D4062709F1070222F03C
:1031F000070CFCE80223E14603F000485FEA080CF4
:1032000002D00FF2702C0DE05FEA045C02D50FF2E1
:10321000682C07E05FEAC47C02D00FF2602C01E06A
:10322000AFF2700C4FF0FF3823F00043CDF850C0E0
:1032300065280CD006DC452809D046281DD0472833
:103240003DD13DE0662818D067287ED138E00021C6
:10325000112F01DB112000E0781CCDE9000106A947
:103260000EA8FFF7DDFCDDE90F010E9A03910021A6
:10327000009207F1010A04914DE04FF000400097E1
:10328000CDE9011006A90EA8FFF7CAFCDDE90F027F
:1032900003920E9B11990022DDF80CA0009304927A
:1032A00011B9791C00EB010AB7EB0A0004D4C0F194
:1032B000FF3007F1010A0490AAEB0700019044E0F7
:1032C000012F00DA01270021112F01DD112000E07C
:1032D0003846CDE9000106A90EA8FFF7A1FCDDE9FB
:1032E0000F010E9A0391002104910092BA46210722
:1032F0000CD40399514500DA8A46BAF1010F05DD75
:10330000009AAAF10101515C302908D0B84202DAD2
:1033100010F1040F06DA0121CDE9011015E0AAF140
:103320000101E9E7002805DC049901440491AAEBB6
:10333000000102E0411C514500DD8A460499401A13
:10334000401C01904FF000400290200704D40198E7
:10335000504501DBCDF8048000208DF84F00029825
:103360000DF14F07B0F1004F25D02B200E900298A1
:103370004FF0020800280CDA404202902D200E90F7
:1033800007E00A210298FDF783F93031029007F82F
:10339000011DB8F10001A8F10108F2DC0298002833
:1033A000EFD1791E0E980870307800F0200040F0C0
:1033B000450007F8020D12A8C01B00F10708149879
:1033C000007800B1012000EB0A01019801EBE071E7
:1033D00005984144401A401E0590E00306D45B4620
:1033E0002146179A059800F05DF805441498007876
:1033F00018B15A46179990476D1CE00324D55B46D7
:103400002146179A059800F04DF805441CE00498F1
:10341000002807DBDDE90301884203DD0098405CFA
:10342000179901E0179930205A469047049805F102
:103430000105401C04900198401E019004D12E20EB
:103440005A46179990476D1CBAF10001AAF1010A7A
:10345000DDDC05E017F8010B5A46179990476D1C03
:10346000B8F10001A8F10108F4DC5B462146179A87
:103470000598ABE62D0000002B00000020000000A6
:103480002DE9F041044600251E461746880404D461
:1034900005E039462020B0476D1C641EF9D528464A
:1034A000BDE8F0812DE9F041044600251E46904616
:1034B000C80301D5302700E02027880404D505E0A3
:1034C00041463846B0476D1C641EF9D52846BDE814
:1034D000F08100000449C2B20B685A6009680A68AA
:1034E000D2435206FBD470476C010020FDF716FE54
:1034F000FFF704FAFEF710FE244823490024016078
:103500002349C0E901144FF48041C0E903414461FB
:103510008461C4610462FDF76DFBFEF751FE1B4838
:103520001C49AC3001604FF4E131C0E901140C21B9
:10353000C460C0E904418461C461FEF793FBFEF7F7
:103540008FFE00F0A1F8144A0021144800F0D8F8CA
:10355000134C114A0021E0612432124800F0D0F8E7
:103560000D4A2062483200210F4800F0C9F80A4A8B
:1035700060626C3200210D4800F0C2F8A06200F0D9
:1035800017F800F09DF8FEE700540040C00000204E
:10359000A086010000380140084E00085D260008A2
:1035A00000000020392800088D280008DD280008C8
:1035B00010B54021092000F03BF80321092000F05C
:1035C00037F84021022000F033F85021032000F0AA
:1035D0002FF80021042000F02BF80021052000F036
:1035E00027F80021062000F023F80F21082000F022
:1035F0001FF80321092000F01BF827210A2000F002
:1036000017F824210C2000F013F824210D2000F0DD
:103610000FF87F21102000F00BF80021032000F0AC
:1036200007F80121BDE81040212000F001B800009A
:1036300003B583B04FF47A73012204A98DE80E001C
:1036400013460246AE210248FDF794FC05B000BDCA
:10365000C000002010B5EFF3058149B9EFF31081E8
:1036600031B908490968022905D1EFF3118111B177
:103670006FF0050403E0002408B100F0E3FD2046EC
:1036800010BD000094000020EFF3058058B9EFF35F
:10369000108040B909490868022801D030B109E01A
:1036A000EFF3118030B16FF0050070470120086022
:1036B000002070474FF0FF3070470000940000205A
:1036C00010B5EFF3058060B9EFF3108048B90B49EE
:1036D0000868022802D0012806D00BE0EFF3118021
:1036E00040B16FF0050010BD0220086000F012FE2E
:1036F000002010BD4FF0FF3010BD000094000020EE
:10370000F0B585B04FEA01034FF00004EFF30581F7
:103710000394A1BBEFF3108189BB214909680229F9
:1037200002D1EFF3118151BB48B3802618218DF8E7
:10373000104004AD42B3176807B13D4697691FB109
:1037400039467F1E382F02D21779FF0702D000209A
:1037500005B0F0BD576907B1BE08D2F808C0BCF18A
:10376000000F0DD0D4685C2C18D312693AB137B170
:103770008DE806103246294601F065F903900DE008
:10378000D7685FB912694AB903AACDE90012B2B28B
:10379000294601F02BF9012800D003940398D7E7BC
:1037A000940000202DE9F041134C0F460546666950
:1037B0002068001D00F016FC681C07D137B1216895
:1037C000BDE8F0410D48091D00F05CBC206835449F
:1037D000B5424560216805D2A068BDE8F041091DE9
:1037E00000F038BC6068091D00F034FC206B854295
:1037F00000D22563BDE8F081440000209C06002033
:103800002DE9F041054600F049FC2D4C2069401C93
:10381000206120682B4F10B1E06930B32BE02560A8
:103820002069012827D1002606EB860007EB8000DF
:1038300000F002FC761C382EF6D3234800F0FCFB87
:103840002148143000F0F8FB1F48283000F0F4FB4A
:103850001D483C3000F0F0FB1B48503000F0ECFB02
:10386000194860601430A06005E02068E96AC06A09
:10387000884200D82560E06A401CE0626864E86A1B
:10388000A169884200D9A06100EB800007EB8000AD
:10389000291D00F0F7FB00F021FCE06900280CD0A6
:1038A0002068E96AC06A884207D208494FF0805010
:1038B0000860BFF34F8FBFF36F8FBDE8F08100004A
:1038C00044000020EC0100204C06002004ED00E044
:1038D00038B500F0E3FB104CA068C8B90F4800F001
:1038E000ABFB0E48143000F0A7FB0C4820601430EE
:1038F00060600A4B00202833009003F15002102131
:103900000A2000F017FEA06010B105A100F064FCD1
:10391000BDE8384000F0E2BB80000020B006002087
:10392000546D72510000000030B4026C0B46002A46
:103930000BD0C1681144C1604468A14201D3016841
:10394000C16030BC1846FCF76EBC30BC70472DE936
:10395000F041856B174604460026026C82B1C7B160
:10396000E068FCF760FCE168206C091AE1602268FD
:10397000914202D26168081AE060022F16D017E067
:103980002068A8B9606801F001F90646002060606F
:103990000EE0A068FCF747FC216CA0680844A0601A
:1039A0006168884204D32068A06001E005B16D1E03
:1039B0006D1CA5633046BDE8F08110B5044690F853
:1039C000590058B101280CD002280FD0502080F3A4
:1039D0001188BFF34F8FBFF36F8FFEE7206B00F0AE
:1039E00091FB2046BDE8104000F08CBB10BD0000EC
:1039F00010484FF44061420706D0C01D0D4920F029
:103A00000700411AC1F540610B4A00230144C2E995
:103A100000030839103A21F0070111604B600B6078
:103A20000B1AC0E9001393604FF000405360D06060
:103A300070470000800E0020A8000020144E154C96
:103A4000A6F29C474FF08058DFF84C9012E000BF80
:103A500000F024FBF068C568281D00F0C3FA206957
:103A6000401E2061E068401EE06000F037FB284601
:103A7000FFF7A3FFE0680028EAD138680128F9D9E8
:103A8000C9F80080BFF34F8FBFF36F8FF2E70000DC
:103A9000880600204400002004ED00E070B51D46BB
:103AA000049C51B1C4F80020C4E90F010121204653
:103AB00000F074FD84F84C5070BD2460F4E72DE9EB
:103AC000F0470E46DDE90984174682469100994683
:103AD000089DA522206BFCF7B8FB6FF00301206B5B
:103AE00001EB8701084420F00707780707D0502032
:103AF00080F31188BFF34F8FBFF36F8FFEE722185B
:103B0000315C82F83410315C11B1401C1028F6D3BE
:103B1000002684F84360382D00D33725E562C4E9D8
:103B20001356201D00F093FA04F1180000F08FFAEC
:103B30002461C5F138006462A061666584F858604C
:103B40004A465146384600F03BFA2060B8F1000F73
:103B500001D0C8F80040BDE8F087000030B5114939
:103B600000E011460A688242FBD34B685C1884422D
:103B700003D1406818444860084643681C189442C2
:103B800009D1084C103C2468A24209D052681A445A
:103B900042600A6812680260814200D0086030BD4D
:103BA0000460F9E7A800002070B5002441600B4DC7
:103BB0000061914206D8D11A8269914206D2011D54
:103BC000686807E09A4203D2994201D3012403E0D6
:103BD000011D286800F03EFA204670BD80000020DC
:103BE00010B5044600F05AFAA06B28B15FF000044B
:103BF00000F074FA204610BD0124F9E730B589B011
:103C0000304D55E00498002806DADDE90601059AF2
:103C10009047049800284BDB069C606910B1201D7A
:103C200000F0E0F902A800F0B9F8024604980A286A
:103C30003ED2DFE800F00505053D263705053D26A7
:103C40000598A169034601442046FFF7ADFF00B384
:103C5000616A20468847E069012829D10020009048
:103C60000598A169002342181946204601F098F8EA
:103C700078B9502080F31188BFF34F8FBFF36F8F57
:103C8000FEE70598A06128B1811813462046FFF78A
:103C90008BFF0DE0502080F31188BFF34F8FBFF3EF
:103CA0006F8FFEE794F82C0010B9204600F02AFA36
:103CB000002204A9A86800F0C3FD0028A2D109B021
:103CC00030BD0000800000202DE9FC410F46054674
:103CD00000F064FB01A800F061F80446019818B1F7
:103CE00000F0CCFFBDE8FC81224EAFB170680068E7
:103CF000A8B30027291B3A46B06800F081FA00F00B
:103D0000BDFF0028EED11C494FF080500860BFF382
:103D10004F8FBFF36F8FE5E7A542EBD800F0AEFF02
:103D200030682746C068C468201D00F05BF9E06970
:103D3000012810D1A0692B4641193A462046FFF7C9
:103D400033FF40B100200346014600902A4620463A
:103D500001F026F820B1616A20468847C2E707E0F3
:103D6000502080F31188BFF34F8FBFF36F8FFEE7B2
:103D70000127BFE78000002004ED00E0064841680D
:103D8000096829B14168C968C96849680163704711
:103D90004FF0FF31FAE700004400002070B50546FF
:103DA00000F08AFE064E04463069844203D200F0D9
:103DB00009F8012000E0002028602046346170BD31
:103DC00080000020F8B5194D1FE0C068C46806687F
:103DD000201D00F007F9616A20468847E069012844
:103DE00013D1A0693044B04206D924616060211D1E
:103DF000286800F02FF908E00020034601460090F3
:103E00003246204600F0CCFF38B12868016800290E
:103E1000DBD16968C5E90010F8BD502080F3118836
:103E2000BFF34F8FBFF36F8FFEE7000080000020CD
:103E300008484068401C4FF0500080F3118804D0BF
:103E4000BFF34F8FBFF36F8FFEE7BFF34F8FBFF30B
:103E50006F8FFEE7B0000020074C2068016841B179
:103E6000C0680021D0F80000FFF72EFFFFF7C6FE64
:103E7000F3E701210020F7E7800000202DE9F04161
:103E8000044600F00BF994F9455004F1240609E0CA
:103E9000606A48B1304600F0B9FE08B100F000FA9F
:103EA0006D1E6DB2002DF3DC4FF0FF3684F84560D7
:103EB00000F014F900F0F2F894F9445004F11007FE
:103EC00009E0206948B1384600F0A0FE08B100F0D2
:103ED000E7F96D1E6DB2002DF3DC84F84460BDE897
:103EE000F04100F0FBB800002DE9F0410546002745
:103EF00000F054FA314E306808B9FFF779FDF068E8
:103F000005424BD1C5B3083568070ED005F0070050
:103F1000C0F108000544680707D0502080F31188DD
:103F2000BFF34F8FBFF36F8FFEE72DB370688542ED
:103F300034D82248103001460C6801E020460C4677
:103F40006168A94202D221680029F7D131688C4208
:103F500024D007682168016060680837411B102978
:103F60000FD96019420708D0502080F31188BFF3A1
:103F70004F8FBFF36F8FFEE710E041606560FFF782
:103F8000EDFD61687068401A7060B268904200D2BE
:103F9000B060F06801430020C4E9000100F06EFE4B
:103FA000780707D0502080F31188BFF34F8FBFF3FD
:103FB0006F8FFEE73846BDE8F081000098000020D2
:103FC00010B5031F4FF080741C601B1F21F001010E
:103FD0001960191F024B0B60143940380A6010BD7C
:103FE000313E0008D0E9013201699A60D0E901232D
:103FF0005A604A68824201D182684A6000220261A6
:104000000868401E0860086870470000034B0360A2
:1040100003F15C000860802010607047C807002032
:10402000044B036003F15C0008604FF48070106083
:1040300070470000240A002000F108014FF0FF3211
:10404000C0E90112C16001610021016070470021D7
:104050000161704730B50B685A1C02D000F10802AC
:1040600002E0026904E02246546825689D42FAD9BC
:1040700053684B6099608A60516008610168491C0F
:10408000016030BD42684A6093688B6093685960F4
:10409000916008610168491C01607047502080F3FD
:1040A0001188BFF34F8FBFF36F8F0A494868401CD8
:1040B000486001280CD10848006810F0FF0F07D0B5
:1040C000502080F31188BFF34F8FBFF36F8FFEE74F
:1040D00070470000B000002004ED00E00849486887
:1040E00028B1401E486001D180F3118870475020EC
:1040F00080F31188BFF34F8FBFF36F8FFEE700008F
:10410000B000002070B5002827D0144DA0F108049D
:104110006168E868014207D1502080F31188BFF33D
:104120004F8FBFF36F8FFEE722683AB1502080F3C4
:104130001188BFF34F8FBFF36F8FFEE7814361603C
:1041400000F02CF960686968084468602046FFF751
:1041500005FDBDE8704000F091BD70BD98000020E5
:104160004FF0E02000210161816105494FF47A722E
:104170000968B1FBF2F1491E4161072101617047F5
:104180004000002010B5FCF707F8114910280ED3A5
:1041900000F1E02090F8F0030A78904207D2502016
:1041A00080F31188BFF34F8FBFF36F8FFEE709488D
:1041B0000068896800F4E060884207D9502080F3E5
:1041C0001188BFF34F8FBFF36F8FFEE710BD000064
:1041D000B00000200CED00E010B5084B002200BF3D
:1041E00053F832401CB1521C082AF9D310BD43F8D1
:1041F000321003EBC201486010BD0000AC0100208A
:1042000070B515460E460446FFF748FF94F9441072
:104210000020491C01D184F8440094F94510491C40
:1042200001D184F84500FFF759FFA06B28B92A4651
:10423000314604F1240000F051F82046BDE87040FA
:10424000FFF71CBE10B5020014D00F48806B38B1C8
:10425000502080F31188BFF34F8FBFF36F8FFEE7BD
:1042600000F09CF800211046FFF79CFA00F006FDD4
:10427000002807D105494FF080500860BFF34F8FE9
:10428000BFF36F8F10BD00004400002004ED00E07C
:1042900002498A6A0260496941607047440000200F
:1042A00001490120486270474400002010B50C46C7
:1042B00050B1094909681831FFF7CCFE2046BDE826
:1042C00010400121FFF76EBA502080F31188BFF330
:1042D0004F8FBFF36F8FFEE74400002070B5144688
:1042E0000D4668B10A4909681831FFF7CBFE0CB1D9
:1042F0004FF0FF3521462846BDE87040FFF752BA1F
:10430000502080F31188BFF34F8FBFF36F8FFEE70C
:104310004400002030B587B00024039405AA04A906
:1043200003A80494FFF772FEDDE903010094CDE9D0
:104330000110002315A11748059A00F084FB164DC3
:10434000002868631FD000F0FBFC012809D0401C46
:1043500019D1502080F31188BFF34F8FBFF36F8FB7
:10436000FEE7502080F31188BFF34F8FBFF36F8FAC
:104370004FF0FF3028630120E8616C6107B0BDE8B1
:10438000304000F06DB807B030BD000049444C45E6
:10439000000000003D3A0008440000200248816B04
:1043A000491C81637047000044000020164810B586
:1043B000816B11B10121416210BD0021416281690F
:1043C000124A01E0B9B1491E01EB810352F82330D2
:1043D000002BF7D001EB810302EB830202F108040A
:1043E00053685B685360A34201D15B685360DA682D
:1043F0000260816110BD502080F31188BFF34F8FA0
:10440000BFF36F8FFEE7000044000020EC010020A6
:1044100013B510484FF4005311B1012906D101E042
:10442000002200E001221946FCF7D8FB0A4C0022CA
:1044300001212046FCF7D2FB4FF47A730122694632
:104440000648FDF7BDFA012211462046FCF7C6FBDF
:104450001CBD0000000802400000024014010020C2
:104460001CB5264908780190FF20087008788DF85F
:1044700000009DF800009DF8002000F0F000904240
:1044800007D0502080F31188BFF34F8FBFF36F8F99
:10449000FEE79DF800001A4B00F05000187007204E
:1044A000986005E09DF8002052008DF80020401E25
:1044B0009DF800201206F5D49860032807D05020FC
:1044C00080F31188BFF34F8FBFF36F8FFEE74FF478
:1044D00040709860019808700A48016841F47001C2
:1044E0000160016841F070410160FFF739FE002072
:1044F0005860FBF71BFE00201CBD000000E400E03C
:10450000B000002020ED00E010B5502080F31188AD
:10451000BFF34F8FBFF36F8F00F0D4FA18B1044987
:104520004FF080500860002080F3118810BD00001B
:1045300004ED00E038B5049D18B153B1CAB181B1A2
:1045400020E0502080F31188BFF34F8FBFF36F8FAF
:10455000FEE7502080F31188BFF34F8FBFF36F8FBA
:10456000FEE7502080F31188BFF34F8FBFF36F8FAA
:10457000FEE739B1502080F31188BFF34F8FBFF3AE
:104580006F8FFEE750241C46012384F846302B46EB
:104590000094FFF783FA204638BD000070B50D4641
:1045A000040025D0FFF77AFDD4E90F20216802FB33
:1045B000001161600021A1632168A1600A46D4E96D
:1045C0000F01401E00FB0121E16021464FF0FF304A
:1045D00001F8440F487004F110008DB1FFF72CFD75
:1045E00004F12400FFF728FDFFF778FD012070BDDE
:1045F000502080F31188BFF34F8FBFF36F8FFEE71A
:1046000021690029F0D000F001FB0028ECD004491A
:104610004FF080500860BFF34F8FBFF36F8FE3E719
:1046200004ED00E02DE9FF4782B01D468A464FF0B9
:104630000008040003D0BAF1000F08D011E05020A8
:1046400080F31188BFF34F8FBFF36F8FFEE7206CAD
:1046500038B1502080F31188BFF34F8FBFF36F8FB5
:10466000FEE7022D0AD1E06B012807D0502080F32D
:104670001188BFF34F8FBFF36F8FFEE700F00EFA84
:104680003F4F4FF000094FF0805648B9049838B1B9
:10469000502080F31188BFF34F8FBFF36F8FFEE779
:1046A000FFF7FCFCA06BE16B884207D3022D05D01D
:1046B0000498D0B1B8F1000F1AD01EE02A46514636
:1046C0002046FFF744F9616A19B104F1240000F0B3
:1046D0009DFA20B13E60BFF34F8FBFF36F8FFFF79E
:1046E000FDFC012006B0BDE8F087FFF7F7FC22E0F3
:1046F0006846FFF7CDFD4FF00108FFF7EFFCFFF72D
:104700004DFEFFF7CBFC94F94400401C01D184F826
:10471000449094F94500401C01D184F84590FFF77E
:10472000DDFC04A9684600F027F930B12046FFF708
:10473000A5FB00F0A3FA0020D4E7FFF7AFFCA06BC5
:10474000E16B884213D1FFF7C9FC04F11000049912
:10475000FFF7ACFD2046FFF791FB00F08FFA002831
:104760009ED13E60BFF34F8FBFF36F8F98E7FFF787
:10477000B5FC2046FFF782FB00F080FA90E70000CE
:1047800004ED00E02DE9F0471F46904689460400FD
:1047900003D0B9F1000F08D011E0502080F3118848
:1047A000BFF34F8FBFF36F8FFEE7206C38B15020FF
:1047B00080F31188BFF34F8FBFF36F8FFEE7022F97
:1047C0000AD1E06B012807D0502080F31188BFF395
:1047D0004F8FBFF36F8FFEE7FFF7D4FC5020EFF34E
:1047E000118680F31188BFF34F8FBFF36F8FA06BDB
:1047F000E16B884206D3022F04D0002086F3118893
:10480000BDE8F08794F945503A4649462046FFF7FF
:104810009EF8681C04D06D1C84F845500120EDE71B
:10482000606A0028FAD004F1240000F0EFF90028B3
:10483000F4D0B8F1000FF1D00121C8F80010EDE775
:104840002DE9F747002683B08A46040003D0BAF169
:10485000000F08D011E0502080F31188BFF34F8F74
:10486000BFF36F8FFEE7206C38B1502080F31188C2
:10487000BFF34F8FBFF36F8FFEE700F00FF9DFF844
:10488000F4804FF000094FF0805748B9059838B1CF
:10489000502080F31188BFF34F8FBFF36F8FFEE777
:1048A000FFF7FCFBA56BC5B151462046FFF73CF86E
:1048B0006D1EA563206950B104F1100000F0A6F947
:1048C00028B1C8F80070BFF34F8FBFF36F8FFFF7A9
:1048D00005FC012006B0BDE8F087059808B11EB1BF
:1048E00006E0FFF7FBFB27E06846FFF7D1FC012657
:1048F000FFF7F4FBFFF752FDFFF7D0FB94F94400FC
:10490000401C01D184F8449094F94500401C01D129
:1049100084F84590FFF7E2FB05A9684600F02CF803
:10492000002820460AD0FFF7A9FA00F0A7F9204690
:10493000FFF756F90028B3D00020CBE7FFF750F976
:1049400090B104F124000599FFF7B0FC2046FFF771
:1049500095FA00F093F90028A2D1C8F80070BFF3CF
:104960004F8FBFF36F8F9BE72046FFF787FA00F06A
:1049700085F995E704ED00E02DE9F0410C460500CE
:1049800011D0C4B1FFF78AFB174B5A696E682068D3
:10499000911B471C17D02F689B6A9F4219D09642E3
:1049A00017D8012410E0502080F31188BFF34F8FF7
:1049B000BFF36F8FFEE7502080F31188BFF34F8F56
:1049C000BFF36F8FFEE70024FFF788FB2046BDE8AA
:1049D000F081884205D9401A20602846FFF758FC2C
:1049E000F1E700202060DCE7440000202DE9FF5FB4
:1049F0008346DDE90E87994616468A469000FFF702
:104A000073FA05001CD05C20FFF76EFA040014D086
:104A10000020256384F85900CDE90240CDE90087E4
:104A20004B46324651465846FFF749F82046FEF7B6
:104A3000E7FE012004B0BDE8F09F2846FFF762FBC7
:104A40004FF0FF30F6E7F0B585B0DDE90B640A9D65
:104A5000A6B1DCB15C2700972663022684F8596072
:104A6000002604AFCDE90246CDE90057FFF727F84D
:104A70002046FEF7C5FE049805B0F0BD502080F337
:104A80001188BFF34F8FBFF36F8FFEE7502080F385
:104A90001188BFF34F8FBFF36F8FFEE70548C169E1
:104AA00019B1806B18B100207047012070470220B7
:104AB0007047000044000020014840697047000032
:104AC000440000202DE9F0412E4C0027A06B40B19E
:104AD000206A401C2062606A00B101273846BDE8A8
:104AE000F0816669761C666113D16068006838B130
:104AF000502080F31188BFF34F8FBFF36F8FFEE715
:104B00006068A1686160A060A06A401CA062FFF7B5
:104B100035F9206BDFF87080864209D36068006841
:104B200080B16068C068C568686886420DD220633D
:104B30002068C06A00EB800158F821000128CAD91A
:104B40000127C8E74FF0FF30F1E7281DFFF74AFAC9
:104B5000A86A18B105F11800FFF744FAE86AA169DC
:104B6000884200D9A06100EB800108EB8100291D7B
:104B7000FFF788FAE86A2168C96A8842CED301271C
:104B8000CCE7000044000020EC01002070B50400D8
:104B90004FF0000133D01B4D2868844207D05020CD
:104BA00080F31188BFF34F8FBFF36F8FFEE7206D47
:104BB00038B1401E2065E36CE26A9A421FD040B1D2
:104BC0001DE0502080F31188BFF34F8FBFF36F8F2C
:104BD000FEE7201DFFF706FAE06CE062C0F1380046
:104BE000A061E06AA969884200D9A861064900EB82
:104BF000800001EB8000211DFFF744FA01210846E7
:104C000070BD000044000020EC01002070B5C068B9
:104C1000C46854B104F118000646FFF7E3F9144DD7
:104C2000A86B50B13146134815E0502080F311882D
:104C3000BFF34F8FBFF36F8FFEE7201DFFF7D2F951
:104C4000E06AA969884200D9A8610B4900EB80009D
:104C500001EB8000211DFFF715FAE06A2968C96A97
:104C6000884202D90120686270BD002070BD00003A
:104C70004400002074060020EC0100202DE9F047DC
:104C80002C4D00242746A86B38B1FFF707FAA86B14
:104C9000401EA863A86B40B146E0502080F3118805
:104CA000BFF34F8FBFF36F8FFEE72969224E0120BC
:104CB000D1B3A6F5916980463068E0B1F068C46868
:104CC00004F11800FFF78EF9201DFFF78BF9E06A59
:104CD000A969884200D9A86100EB800109EB810035
:104CE000211DFFF7CFF9E06A2968C96A8842E3D33A
:104CF000C5F82480E0E70CB1FFF740F82C6A4CB10E
:104D00004FEA0806FFF7DEFE00B16E62641EF9D1BD
:104D100000202862686A38B108490127380708600E
:104D2000BFF34F8FBFF36F8FFFF7D8F93846BDE859
:104D3000F0870000440000207406002004ED00E02D
:104D400010B586B0FEF7C4FD114CA068B8B10020C4
:104D50000390049005AA04A903A8FFF761F9DDE90F
:104D6000032102208DE8070000230AA10B48059AC1
:104D7000FFF769FEE06010B106B0012010BD5020C1
:104D800080F31188BFF34F8FBFF36F8FFEE70000F2
:104D900080000020546D722053766300593E000855
:104DA0002DE9FF411E46134602000A9D4FF0000008
:104DB00016D0144CA768002F0FD0CDE90013029233
:104DC000062917DAFFF76AFE02284FF000030FD01A
:104DD00000226946A068FFF725FC04B0BDE8F08119
:104DE000502080F31188BFF34F8FBFF36F8FFEE722
:104DF0002A46EEE70023324669463846FFF7C2FCF2
:104E0000EBE700008000002070590008000000005F
:104E10000000000000000000000000000002000090
:104E20001800000000000000000000004C590008BD
:104E30000000000000000000000000000000000072
:104E40000003000008000000000000000000000057
:104E50005859000800000000000000000000000099
:104E60000000000000020000080000000000000038
:104E7000000000006459000800000000000000006D
:104E80000000000000000000000200000800000018
:104E900000000000000000000000F0F80868F8F0D2
:104EA0000000070F0B080F0700202030F8F8000063
:104EB000000000000F0F00000030380888F8700074
:104EC000000C0E0B090808000030388888F87000C4
:104ED00000060E08080F07000000F8F800E0E000E8
:104EE00000030302020F0F0200F8F8888888080008
:104EF000000808080C07030000C0E07858C88000CC
:104F000000070F08080F070000080888E878180055
:104F100000000E0F010000000070F8C888F8700053
:104F200000070F08090F070000F0F80808F8F00064
:104F30000000090D0F030100000000000000000048
:104F40000000000000000000000070F8F870000091
:104F50000000000D0D000000003838000038380057
:104F600000000000000000000020F8F820F8F82001
:104F700000020F0F020F0F02003078CE8E181000C3
:104F800000040C38390F0600183C24BCD8603000EF
:104F90000006030D1E121E0C00B0F8487830000009
:104FA00000070F0809070F0900000038380000004B
:104FB00000000000000000000000C0F03808000001
:104FC0000000071F3820000000000838F0C0000073
:104FD000000020381F0700000080A0E0C0E0A08093
:104FE0000000020301030200008080E0E0808000F6
:104FF00000000003030000000000000000000000AB
:105000000000002C3C1C000000808080808080001C
:105010000000000000000000000000000000000090
:105020000000000C0C0C000000000080E07818006C
:1050300000181E07010000000000F0F80868F8F0F2
:105040000000070F0B080F0700202030F8F80000C1
:10505000000000000F0F00000030380888F87000D2
:10506000000C0E0B090808000030388888F8700022
:1050700000060E08080F07000000F8F800E0E00046
:1050800000030302020F0F0200F8F8888888080066
:10509000000808080C07030000C0E07858C880002A
:1050A00000070F08080F070000080888E8781800B4
:1050B00000000E0F010000000070F8C888F87000B2
:1050C00000070F08090F070000F0F80808F8F000C3
:1050D0000000090D0F030100000000606060000087
:1050E0000000000C0C0C000000000060606000007C
:1050F0000000002C3C1C00000080C060301808003C
:1051000000000103060C0800004040404040400001
:1051100000010101010101000008183060C0800099
:1051200000080C060301000000303888C878300001
:105130000000000D0D000000F0F80888C848F8F0E5
:10514000070F08090B0A0B0B00E0F01818F0E0003D
:10515000000F0F01010F0F0000F8F88888F87000A9
:10516000000F0F08080F070000F0F808083830009B
:1051700000070F08080E060000F8F80818F0E00015
:10518000000F0F080C07030000F8F8888888080053
:10519000000F0F080808080000F8F8888888080041
:1051A000000F0F000000000000F0F8080838300081
:1051B00000070F08090F0F0000F8F88080F8F800CA
:1051C000000F0F00000F0F00000008F8F8080000A3
:1051D0000000080F0F0800000000000000F8F800B1
:1051E00000060E08080F070000F8F880E0781800A5
:1051F000000F0F00030F0C0000F8F8000000000083
:10520000000F0F080808080000F8F820C020F8F880
:10521000000F0F0001000F0F00F8F860C080F8F8D1
:10522000000F0F0000010F0F00F0F80808F8F00061
:1052300000070F08080F070000F8F88888F87000CA
:10524000000F0F000000000000F0F80808F8F00060
:1052500000070F08183F270000F8F88888F870004A
:10526000000F0F00010F0E00003078C888181000E2
:1052700000040C08090F0600000808F8F8080800E8
:105280000000000F0F00000000F8F80000F8F80020
:1052900000070F08080F070000F8F80000F8F800F2
:1052A0000003070C0C07030000F8F800C000F8F832
:1052B00000010F0E010E0F01001838E0C038180071
:1052C000000E0F00010F0E000078F88080F87800C3
:1052D0000000000F0F00000000080888C8783800A0
:1052E000000E0F09080808000000F8F80808000080
:1052F00000007F7F40400000001878E08000000040
:1053000000000001071E180000000808F8F800005F
:10531000000040407F7F000000080C06060C0800DB
:10532000000000000000000000000000000000007D
:105330004040404040404040000002060E0800004F
:1053400000000000000000000000202020E0C0005D
:1053500000060F09090F0F0000F8F82020E0C00038
:10536000000F0F08080F070000C0E0202060400079
:1053700000070F08080C040000C0E02020F8F80027
:1053800000070F08080F0F0000C0E02020E0C00059
:1053900000070F09090901000080F0F888888800DB
:1053A00000000F0F0000000000C0E02020E0E0003F
:1053B00000474F48487F3F0000F8F82020E0C00039
:1053C000000F0F00000F0F00002020ECEC00000089
:1053D0000008080F0F08080000002020ECEC000077
:1053E000004040407F3F000000F8F80080E060008F
:1053F000000F0F01030E0C00000808F8F800000071
:105400000008080F0F08080000E0E020E020E0C0DE
:10541000000F0F0007000F0F00E0E02020E0C000A9
:10542000000F0F00000F0F0000C0E02020E0C000C0
:1054300000070F08080F070000E0E02020E0C00090
:10544000007F7F08080F070000C0E02020E0E00098
:1054500000070F08087F7F0000E0E08040606000E8
:10546000000F0F000000000000C0E02020202000FE
:1054700000080909090F06000020F8F82020200084
:105480000000070F0808080000E0E00000E0E0006E
:1054900000070F08080F0F0000E0E00000E0E00048
:1054A0000003070C0C07030000E0E000C000E0E090
:1054B00000030F0C030C0F030060E08080E060002D
:1054C000000C0E03030E0C0000E0E00000E0E00022
:1054D00040474F68381F070000202020A0E06000F0
:1054E000000C0E0B09080800000080F0780800008E
:1054F0000001031E3C200000000000F8F80000003E
:105500000000007F7F00000000000878F0800000AD
:105510000000203C1E03010030180818302030180D
:105520000000000000000000FFFFFF07070707075B
:1055300007070707070707070707070707070707FB
:1055400007070707070707070707070707070707EB
:1055500007070707070707070707070707070707DB
:1055600007070707070707070707070707070707CB
:1055700007070707070707070707070707070707BB
:1055800007070707070707070707070707070707AB
:10559000070707070707070707070707070707079B
:1055A0000707070707FFFFFFFFFFFF0000000000DE
:1055B00000000000000000000000000000000000EB
:1055C00000000000000000000000000000000000DB
:1055D000000000000000000000000000000000C00B
:1055E00000000000000000000000000000000000BB
:1055F00000000000000000000000000000000000AB
:10560000000000000000000000000000000000009A
:10561000000000000000000000000000000000008A
:105620000000000000FFFFFFFFFFFF000000000080
:10563000000000000000000000000000000000006A
:105640000000000000000000000000000000000654
:105650003C601C0638403806003C6A4A4A2C007FF1
:1056600000003C66424242003C664242663C007E8C
:105670000402027C02027E00003C6A4A4A2C0000BE
:10568000000000000000000000000000000000001A
:10569000000000000000000000000000000000000A
:1056A0000000000000FFFFFFFFFFFF000000000000
:1056B00000000000000000000000000000000000EA
:1056C00000000000000000000000000000000000DA
:1056D00000000000000000000000000000000000CA
:1056E00000000000000000000000000000000000BA
:1056F00000000000000000000000000000000000AA
:105700000000000000000000000000000000000099
:105710000000000000000000000000000000000089
:105720000000000000FFFFFFFFFFFF00000000007F
:105730000000000000000000000000000000000069
:105740000000000000000000000000000000000059
:105750000000000000000000000000000000000049
:105760000000000000000000000000000000000039
:105770000000000000000000000000000000000029
:105780000000000000000000000000000000000019
:105790000000000000000000000000000000000009
:1057A0000000000000FFFFFFFFFFFF0000000000FF
:1057B00000000000000000000000000000000000E9
:1057C00000000000000000000000000000000000D9
:1057D00000000000000000000000000000000000C9
:1057E00000000000000000000000000000000000B9
:1057F00000000000000000000000000000000000A9
:105800000000000000000000000000000000000098
:105810000000000000000000000000000000000088
:105820000000000000FFFFFFFFFFFF000438C00082
:10583000C03804F80C040CF800000000F80C040C4C
:10584000F800000808FC0000000000000000000054
:105850000000000000000000000000000000000048
:105860000000000000000000000000000000000038
:10587000000000000000000000000030E000E03008
:10588000C000C03000805050F00000F20010FC104A
:105890001000E050505060000000000000000000C8
:1058A0000000000000FFFFFFFFFFFFE0E0E0E1E29B
:1058B000E1E0E0E1E3E2E3E1E0E0E2E0E1E3E2E3D2
:1058C000E1E0E0E0E0E3E0E0E0E0E0E0E0E0E0E0D4
:1058D000E0E0E0E0E0E0E0E0E0E0E0E0E0E0E0E0C8
:1058E000E0E0E0E0E0E0E0E0E0E0E0E0E0E0E0E0B8
:1058F000E0E0E0E0E0E0E0E0E0E0E0E0E1E3E0E0A4
:10590000E1E2E1E0E0E3E2E2E3E0E0E3E0E0E3E281
:10591000E2E0E1E3E2E2E1E0E2E0E0E2E0E0E2E076
:10592000E0E2E0E0E0FFFFFF030406080C101820AF
:105930003000000000000000000102030406070818
:105940000900000000010203040000006D795461A9
:10595000736B3032000000006D795461736B30332B
:10596000000000006D795461736B3034000000005A
:1059700064656661756C745461736B009C590008B2
:1059800000000020C0000000002C00085C5A000845
:10599000C0000020C01E0000102C00080100000004
:1059A00000000000010000000300000000000000F3
:1059B00000000000000000000000000000000000E7
:1059C00000000000000000000000000000000000D7
:1059D00010000000010000000000000068FF1F0030
:1059E00000000000000000000000000000000000B7
:1059F00000000000000000000000000000000000A7
:105A00000000000000000000000000000000000096
:105A10000000000000000000000000000000000086
:105A20000000000000000000000000000000000076
:105A30000000000000000000000000000000000066
:105A40000000000000000000000000000000000056
:0C5A5000AAAAAAAA0000000000000000A2
:04000005080000F5FA
:00000001FF
